:020000040000fa
:080000000002040000000000f2
:020000040000fa
:100400000fa820000eff27000e018800000000004a
:100410000c00070020e52000010020000f0007006d
:10042000000020000000e000020032000000020096
:1004300000000000c00d0200000000000040da00d3
:100440000000fe00000720000000e0000200320073
:10045000002020009001880000000600a102880012
:10046000800078000000eb001a003700e2804000b6
:1004700054a0b4009101ba00e280400054a0b4003e
:100480009102ba00e280400054a0b4000002eb00e8
:10049000472bde00f507b200a6018800602ce100c2
:1004a00008003a000049eb000201e80002003900b0
:1004b0003420ec0002f0a0008301e900f9ff3e00c7
:1004c000040037006128e100010032000082eb00e7
:1004d000040007001101ba000200e000e3ff3a0047
:1004e0000000060004d0a300e20f49001c00390000
:1004f000810278003549ba000201e80002003900a3
:100500003420ec0002f0a0008301e9000f0032006b
:100510002549ba000201e800020039003420ec004d
:1005200002f0a0008301e900080032000400e000ae
:100530000600320015c9ba000201e80002003900c5
:100540003420ec0002f0a0008301e9008180e80083
:1005500054a0b4000300e000e2ff3a0000000600ef
:100560009102ba00055978008301e900f7ff3200d3
:10057000c82ade00055978008301e900f3ff320044
:100580000400e000f1ff320011d9ba00eeff37009d
:020000040000fa
:020000040002f8
:04aff400031c00003a
:020000040000fa
:020000040002f8
:04aff8000f890000bd
:020000040000fa
:020000040002f8
:04affc007f3e000094
:020000040000fa
:102000000002040000000000660e04000000000052
:10201000660e040000000000660e040000000000d0
:10202000660e040000000000660e040000000000c0
:10203000660e040000000000660e040000000000b0
:10204000660e040000000000660e040000000000a0
:10205000660e040000000000660e04000000000090
:10206000660e040000000000660e04000000000080
:10207000660e040000000000660e04000000000070
:10208000660e040000000000660e04000000000060
:10209000660e040000000000660e04000000000050
:1020a000660e040000000000660e04000000000040
:1020b000660e040000000000660e04000000000030
:1020c000660e040000000000660e04000000000020
:1020d000660e040000000000660e04000000000010
:1020e000660e040000000000660e04000000000000
:1020f000660e040000000000660e040000000000f0
:10210000660e040000000000660e040000000000df
:10211000660e040000000000660e040000000000cf
:10212000660e040000000000660e040000000000bf
:10213000660e040000000000660e040000000000af
:10214000660e040000000000660e0400000000009f
:10215000660e040000000000660e0400000000008f
:10216000660e040000000000660e0400000000007f
:10217000660e040000000000660e0400000000006f
:10218000660e040000000000660e0400000000005f
:10219000660e040000000000660e0400000000004f
:1021a000660e040000000000660e0400000000003f
:1021b000660e040000000000660e0400000000002f
:1021c000660e040000000000660e0400000000001f
:1021d000660e040000000000660e0400000000000f
:1021e000660e040000000000660e040000000000ff
:1021f000660e040000000000660e040000000000ef
:10220000660e040000000000660e040000000000de
:10221000660e040000000000660e040000000000ce
:020000040000fa
:1000080004100000081000000c1000001010000080
:10001800141000000c1100000c1100000c1100005d
:10002800181000001c100000201000002410000010
:100038000c110000281000002c10000030100000e7
:1000480034100000381000003c1000004010000080
:1000580044100000481000000c1100000c110000b2
:100068004c10000050100000541000005810000000
:100078005c1000000c11000060100000641000000b
:100088000c110000681000006c10000070100000d7
:1000980074100000781000007c1000008010000030
:1000a80084100000881000000c1100000c110000e2
:1000b8000c1100008c10000090100000941000003b
:1000c800981000009c100000a0100000a410000070
:1000d800a8100000ac1000000c1100000c1100006a
:1000e8000c110000b0100000b41000000c1100004a
:1000f8000c110000b8100000bc1000000c1100002a
:100108000c1100000c1100000c1100000c11000073
:100118000c1100000c110000c01000000c110000b0
:100128000c110000c4100000c8100000cc10000022
:100138000c1100000c1100000c1100000c11000043
:10014800d01000000c1100000c1100000c11000070
:100158000c110000d41000000c1100000c1100005c
:100168000c110000d8100000dc100000e0100000a6
:10017800e4100000e8100000ec100000f01000008f
:10018800f4100000f8100000fc100000001100003e
:1001980004110000081100000c1100000c110000ef
:1001a8000c1100000c1100000c1100000c110000d3
:1001b8000c1100000c1100000c1100000c110000c3
:1001c8000c1100000c1100000c1100000c110000b3
:1001d8000c1100000c1100000c1100000c110000a3
:1001e8000c1100000c1100000c1100000c11000093
:0801f8000c1100000c110000c5
:020000040000fa
:100590001201000000020000000000000040000006
:1005a0006666000021430000000000000102000018
:1005b000000100000902000012000000010100001b
:1005c00000a000003209000004000000000000004c
:1005d000ff000000ff000000040300000904000009
:1005e0001a0300004f0000006c00000069000000ca
:1005f0006e00000020000000430000006f000000bb
:100600006c0000006c000000650000006700000046
:10061000650000002e0300005000000049000000ab
:1006200043000000320000003400000046000000db
:100630004a000000200000005500000053000000a8
:100640004200000020000000420000006f00000097
:100650006f000000740000006c0000006f000000dc
:1006600061000000640000006500000072000000ee
:020000040000fa
:100670000400fa009424a8000000eb00b0248800d5
:10068000f00f2000702488009424a900a04a2000c4
:10069000100798000040eb00004f7800080037007a
:1006a0001e80fb0000004000800078001e009000cb
:1006b000808040000000eb00800878001e4fe800ba
:1006c000f0c0b3009e4f1000f5ff3600d0002000b0
:1006d0005025880000c4b30000eab7000080200065
:1006e0001050880080c8b30001eab70000842000e1
:1006f0003050880080c0b30005eab7000000eb006e
:10070000302588000000eb004025880000a0200074
:100710004800de00c02488008644a80086e4a800c3
:100720008804a80094a4a9000040eb0099e8b70051
:100730000040eb009ce8b70010c0b3009ae8b70097
:1007400000c0eb008ce8b70000c0eb008de8b700fc
:1007500094c4bf000044b2000004e000fcff3a0073
:100760000080fa00000006000800fa008ac4bf00fa
:10077000624060000004e00005003200f00f20003d
:10078000702488002000200050248800900037004a
:100790008ac4bf00644060000004e000030032002f
:1007a0004000200050248800890037008ac4bf0020
:1007b000704060000004e0000300320000012000ef
:1007c00050248800820037008ac4bf000042b20073
:1007d0000004e000030032000002200050248800e2
:1007e0007b0037008ac4bf0001c8b300014060002d
:1007f0000004e000030032000008200050248800bc
:10080000730037008ac4bf00614060000004e0004c
:10081000340032000040eb0099e8b70008003700d0
:10082000800020005024880000000000000000002c
:1008300000000000000000000000000000000000b8
:100840008ac4bf00684060000004e000f4ff3a0082
:10085000a04a2000100798000040eb00004f7800ed
:10086000080037001e80fb00000040008000780078
:100870001e009000808040000000eb00800878009f
:100880001e4fe800f0c0b3009e4f1000f5ff360089
:1008900000c4b30000eab7000080200010508800b8
:1008a00080c8b30001eab7000084200030508800ff
:1008b00080c0b30005eab7000000eb00b024880058
:1008c000f00f200050248800d00020005025880020
:1008d00010c0b3009ce8b70010c0b3009ae8b7009e
:1008e0003b0037008ac4bf00684060000004e0009d
:1008f00037003200902480004300de004200dd001b
:100900008000780000a020000080400020079800b0
:100910002e0090001040900081e8b7002e0090005b
:100920001040780080e8b7002e0090001000900082
:1009300010448800902480009be8b70080002000cd
:10094000502488000040eb0098e8b70081c8bf0041
:100950008080fb00c0032000808060003107980089
:1009600040022000be009000808f50000a0032003c
:1009700040032000be009000808f50000400320031
:100980003e009000e40f50000500320005003700e3
:100990001100070003003700ff02070001003700c5
:1009a0003203070098c8bf000080fb0061006000b0
:1009b0000004e0000600320000c4b30000eab70003
:1009c00040c8b30005eab70040c8b30001eab70069
:1009d0000080fa00000006000600fa0010448000c3
:1009e000000f78001e0078009040780040882000ba
:1009f000014878001e0fe8001e0078009040780043
:100a000040882000114098001e0fe8001e0078006a
:100a10009040780040882000214098001e0fe80098
:100a20001e007800904078004088200031409800f7
:100a30001e0fe8001e0078009040780040882000db
:100a4000414098001e0fe8001e007800904078009a
:100a500040882000514098001e0fe8001e007800da
:100a60009040780040882000614098001e0fe80008
:100a70001e00780090407800408820007140980067
:100a80001e0fe80000c4b30000eab70080c0b30046
:100a900005eab70040882000104078000004e0001c
:100aa0000700350040882000300090000000e00082
:100ab0000300320081ccb3004147980002003700a8
:100ac00080c8b300404798004e40900001eab7004c
:100ad00094a4a90000c0eb008ce8b70000c0eb00b4
:100ae0008de8b70040882000104078008080fb002f
:100af0000006200080806000110798009e00900092
:100b00000100e00005003200000420009e0090007b
:100b1000808f5000030032000400370008000700f7
:100b200005003700220307000300370098c8bf0004
:100b30000004a00098e8b7000080fa00000006005a
:100b40002800fa0040882000104090000080fb0040
:100b5000301798003e109000e60f50009d013200c3
:100b6000be109000e68f500011003c003e11900036
:100b7000e10f5100d60032003e109000e10f50000e
:100b800004003c00be1090000100e000190032009b
:100b90007c0237003e119000e30f5100cc00320080
:100ba0003e109000e50f50006e01320075023700d4
:100bb000be109000e98f50000f0232003e119000ed
:100bc000e90f510004003c003e109000e80f500077
:100bd000010232006b023700be109000ea8f500015
:100be0002f0232003e119000eb0f510045023200ff
:100bf0006402370040882000104078000080fb002d
:100c00007f006000201798002e109000e10f500028
:100c100013003200ae109000e28f5000320032001c
:100c20002e1190000200e00001003200a400370005
:100c3000315080009ac8bf00804878003050800052
:100c40008000e8000040eb008048780020c0b3003e
:100c500004eab70080ccb30005eab7004c023700c5
:100c60009cc8bf000080fb00101798001e10900069
:100c7000e20f5000040032009e109000e38f5000fd
:100c8000050032004202370098c8bf000004a000ef
:100c900098e8b7003e0237004088200040409000ae
:100ca0000004e0000c003a00315080000040eb00ee
:100cb00080487800305080008000e8000040eb0061
:100cc0008048780020c0b30004eab70080ccb300ad
:100cd00005eab7002e02370098c8bf000004a00044
:100ce00098e8b7002a0237009cc8bf000080fb00cc
:100cf000001798000e119000e20f5100040032001e
:100d00000e109000e30f50002800320068003700fa
:100d100040882000404090000080fb006f00600091
:100d20000000e0001d003a0031508000710f980073
:100d300040882000404090000004e00006003d0094
:100d400005cabf000080fb00640060004280de0036
:100d5000405f98000500370001cabf000080fb001b
:100d6000640060004280de00405f98004e589000b2
:100d70007e09900000497800305080008000e80033
:100d80000040eb008048780020c0b30004eab700c0
:100d900080ccb30005eab700fd01370098c8bf005a
:100da0000004a00098e8b700f9013700a04a20002d
:100db0001007980040882000404090006f4f60006e
:100dc0001e80fb0000004000500f9800408820006b
:100dd000404090008000eb00410f98000004e000cc
:100de00002003d0012002000420f9800de08900033
:100df0004e099000028070004200dd008000780003
:100e000000a0200000804000200798001e80fb000a
:100e100000004000800078001e009000008040002c
:100e200010007800300f980040882000404090006b
:100e30000004e00003003d0040002000200f980067
:100e40000200370081002000210f98003e09900029
:100e5000ae089000010061000000e00010003200c8
:100e6000315080002e009000104090000080fb0068
:100e7000640060004280de008048780030508000ce
:100e80008000e8000040eb008048780020c0b300fc
:100e900004eab70080ccb30005eab700bc01370014
:100ea00098c8bf000004a00098e8b700b801370058
:100eb00098c8bf000004a00098e8b700b40137004c
:100ec00098c8bf000004a00098e8b700b001370040
:100ed00040882000104078000080fb007f00600008
:100ee000100f98001e0990000200e000040032007c
:100ef0001e089000e20f50001c00320095003700e1
:100f000040882000204090000080fb00e10f50004e
:100f1000010032001100370040882000104090008e
:100f2000e14f500005003a009ac8bf00e1cfb3007e
:100f3000014060009ae8b700030037009ac8bf007c
:100f40000004a0009ae8b7000040eb0004eab700f4
:100f500080ccb30005eab7008d01370098c8bf0008
:100f60000004a00098e8b700890137009cc8bf00c2
:100f70000080fb00000f98008e089000e28f500068
:100f8000040032000e099000e30f510010003200ff
:100f90006c00370040882000404090000080fb003b
:100fa0006f0060000000e00005003a000040eb0028
:100fb00004eab70080ccb30005eab700740137003b
:100fc00098c8bf000004a00098e8b700700137007f
:100fd000a04a200010079800408820004040900060
:100fe0006f4f60001e04e0004c0032001e80fb00ca
:100ff00000004000700798004088200040409000aa
:101000008000eb00610798000004e00002003d0052
:101010001200200062079800fe0090006e01900010
:10102000028070004200dd008000780000a02000f7
:101030000080400020079800408820004040900039
:101040000004e0001b003d001e80fb00000040008b
:10105000800078001e0090000080400010007800a2
:101060004200de00610060000004e0000d0032007c
:101070004088200010409000e14f500003003a00eb
:101080000040eb00304f98000200370041c8b30029
:10109000314f98002e0090003e4990001240980079
:1010a0001e00370098c8bf000004a00098e8b700f1
:1010b0001a0037001e80fb0000004000800078000e
:1010c0001e00900000804000100078004300de0009
:1010d000610060000004e0000d0032004088200044
:1010e00010409000e14f500003003a0080c8b30068
:1010f000204f98000200370041c8b300214f9800ec
:101100002e0090002e4990001240980003003700f6
:1011100098c8bf000004a00098e8b70098c8bf00b6
:101120000080fb00610060000000e00018013a0050
:101130000040eb0004eab70080ccb30005eab7003a
:101140001301370098c8bf000004a00098e8b7005a
:101150000f01370098c8bf000004a00098e8b7004e
:101160000b01370040882000204090000004e00080
:1011700004003d0098c8bf000004a00098e8b70034
:101180000301370040882000104078008ce8b70049
:1011900040882000104090008de8b7004088200073
:1011a00010009000704488004088200020009000cb
:1011b00080448800408820003000900090448800df
:1011c0000040eb0004eab70080ccb30005eab700aa
:1011d000ef00370040882000104078008ce8b7000e
:1011e00040882000104090008de8b7004088200023
:1011f000100090007044880040882000200090007b
:10120000804488004088200030009000904488008e
:1012100040882000304090000080fb00400798008c
:101220004e009000e20f500017003200ce009000f8
:10123000e38f5000370032004e019000e10f510063
:101240000100320060003700802c2800a044880094
:10125000a0448000104078000080fb00b04488006b
:1012600040882000b0009000b0448000808f500083
:10127000030031004088200030009000b044880016
:101280001b010700c200370040882000204090006a
:101290000080fb000000e000010032000300370086
:1012a000a02d2800a04488000300370098c8bf0084
:1012b0000004a00098e8b70098c8bf000080fb00b9
:1012c000610060000000e000b1003a00a04480002e
:1012d0000080e8001040780096e8b700a044800045
:1012e000630040001040780097e8b7004088200075
:1012f000b0009000b0448000808f500003003100a7
:101300004088200030009000b0448800f8000700ba
:101310009f00370040882000204090000080fb00a4
:10132000300798003e009000e10f50000a003200a4
:10133000be009000e28f50000a0032003e01900093
:101340000200e0000100320009003700c02e280032
:10135000a044880009003700002f2800a04488001e
:1013600006003700a0302800a044880003003700a2
:1013700098c8bf000004a00098e8b70098c8bf0054
:101380000080fb00610060000000e00080003a0087
:10139000a0448000104078000080fb00b04488002a
:1013a00040882000b0009000b0448000808f500042
:1013b000030031004088200030009000b0448800d5
:1013c000cb0007007200370098c8bf000004a000df
:1013d00098e8b7006e0037003150800099c8bf0010
:1013e0008048780010c0b30004eab70080ccb30096
:1013f00005eab700660037004088200020409000d2
:10140000e14f500022003e00a04a20001007980043
:1014100010c0b300004f7800080037001e80fb00aa
:1014200000004000800078001e0090008080400096
:101430000000eb00800878001e4fe800f0c0b30009
:101440009e4f1000f5ff360040882000204090009d
:1014500099e8b70099c8bf000080fb000000e000d9
:10146000010032000300370020c0b3009ce8b70041
:101470000200370030c0b3009ce8b7000040eb002a
:1014800004eab70080ccb30005eab700400037009b
:1014900098c8bf000004a00098e8b7003c003700df
:1014a0009cc8bf000080fb00e30f50000100320029
:1014b0001000370040882000404090000004e00009
:1014c00008003a00315080000040eb00804878006e
:1014d00010c0b30004eab70080ccb30005eab7003f
:1014e0002b00370098c8bf000004a00098e8b700a0
:1014f0002700370098c8bf000004a00098e8b70094
:10150000230037009cc8bf000080fb00e30f5000a1
:101510000100320017003700408820004040900052
:101520000004e0000f003a004088200020409000b6
:101530000080fb000000e0000100320005003700e1
:101540000040eb0004eab70080ccb30005eab70026
:101550000f00370098c8bf000004a00098e8b7004b
:101560000b00370098c8bf000004a00098e8b7003f
:101570000700370098c8bf000004a00098e8b70033
:101580000300370098c8bf000004a00098e8b70027
:101590000080fa00000006000400fa009bc8bf00ab
:1015a0008080fb00000f2000008060000000e00051
:1015b000010032002b0037008cc8bf008080fb0088
:1015c00000062000808060001107980000022000c3
:1015d0009e009000808f5000220032000004200006
:1015e0009e009000808f50001d0032001e00900071
:1015f0000000e000010032001a0037008dc8bf0073
:101600000080fb00000f78009e007800e58f5000fe
:10161000040032001e007800e60f50000e00320079
:10162000100037008ec8bf000080fb00b024880087
:10163000b02480000000e000010032000300370009
:1016400010c0b3009ce8b7000600370020c0b3000c
:101650009ce8b700030037002500070001003700b1
:10166000e40007000080fa00000006000200fa0013
:101670009bc8bf008080fb00000f2000008060003e
:101680000000e00001003200170037008cc8bf00e6
:101690008080fb000006200080806000010f780041
:1016a000000220009e007800808f5000060032006b
:1016b000000420009e007800808f5000010032005e
:1016c00001003700d100070000c4b30000eab700f2
:1016d00080c8b30001eab7000040eb0004eab7009d
:1016e00080ccb30005eab7000080fa0000000600d5
:1016f0000200fa00b1448000f0032000808f500007
:1017000009003e00b0448000104798000000eb0044
:10171000b044880000c0eb008ce8b70000c0eb00cc
:101720008de8b7000600370000c4b30010479800ea
:10173000b144800000fc2f0000804000b0448800cd
:101740000040eb00004f7800090037003150800066
:101750001e80fb0000814000a14480001140780001
:10176000004978000100e800a04488001e4fe8000e
:101770001e4090009e4f1000f4ff39001e40900064
:1017800004eab70051a020009140780000c4b300e3
:1017900000c0680002c4b3008240600080c8b3008b
:1017a00000c0700005eab7000080fa0000000600e3
:1017b0000800fa0040882000104090000080fb00e4
:1017c000300798003e009000e30f500047003200c1
:1017d0003e009000e30f500004003c003e009000eb
:1017e000e20f5000080032007d0037003e009000fc
:1017f000e40f50004d0032003e009000e60f500014
:101800006a00320076003700a002800010079800be
:101810004088200010009000a00288000000eb002b
:10182000000f78002500370040882000200090003d
:101830001000ba0020079800315080001e00780088
:10184000808040004e409000804878001e0fe800e5
:10185000315080001e007800808040005e40900083
:10186000804878001e0fe80040882000200090008b
:101870001080ba0020079800315080001e007800c8
:10188000808040004e409000804878001e0fe800a5
:10189000315080001e007800808040005e40900043
:1018a000804878001e0fe80040882000200090004b
:1018b0008080e800408820002100980040882000b7
:1018c000300090009e0f5000d7ff3e001e00900099
:1018d000a0028800408820003000900004eab70091
:1018e00080ccb30005eab7004000370040882000f4
:1018f000104078008ce8b70040882000104090002d
:101900008de8b700408820001000900070448800e7
:1019100040882000200090008044880040882000fb
:1019200030009000904488003000370020042400ec
:10193000003b8800a002800010079800408820002b
:1019400010009000a002880040882000a0009000b5
:101950000000eb008008bb001000fc0050052000d8
:10196000303b8800a00a2000303b880061e7a800d7
:10197000000000000000000061c7bf0001c8b30004
:10198000014060000004e000fbff3a0061c7a900cd
:101990001e009000a00288000040eb0004eab7009f
:1019a00080ccb30005eab7001000370010c0b300c8
:1019b0009ee8b70040882000100090000045880095
:1019c0004088200020009000104588000040eb0077
:1019d00004eab70080ccb30005eab7000300370083
:1019e00098c8bf000004a00098e8b7000080fa0083
:1019f000000006000000fa0098c8bf000004a00024
:101a000098e8b7000080fa00000006000800fa001d
:101a10008dc8bf000080fb00e30f500001003200c2
:101a20005200370010002400003b8800a002800014
:101a30002007980070448000a00288008144800044
:101a400080ff2f0000806000100798000000eb006e
:101a5000000f78000a0037001e0090009e00400032
:101a60000080eb008008bb001e0090001e004000bc
:101a70008000e800f00f20008088bb001e8fe80087
:101a8000f00720009e0f1000f3ff36000000eb006f
:101a9000000f780021003700115080001e007800f0
:101aa0000080400010407800604798001e0fe8005a
:101ab000115080001e007800008040001040780027
:101ac000704798001e0fe800be0090008044800020
:101ad0000108bb00115080001e007800008040000b
:101ae00010407800604798001e0fe80011508000f9
:101af0001e00780000804000104078007047980079
:101b00001e0fe800be009000804480000188bb00ea
:101b1000804480000080e800804488009044800079
:101b20009e0f5000dcff3e001000fc00500520001e
:101b3000303b8800a00a2000303b880061e7a80005
:101b4000000000000000000061c7bf0001c8b30032
:101b5000014060000004e000fbff3a0061c7a900fb
:101b60002e009000a00288000300370098c8bf0034
:101b70000004a00098e8b7000080fa00000006000a
:101b80000200fa0000102000203a88000000eb005c
:101b9000102788000000eb00202788000000eb00e1
:101ba000302788000000eb00502788000000eb0081
:101bb00060278800312d20009140780000c8b300d4
:101bc00000c060000004e0000200320000100400c9
:101bd000000000000003280020088800a0862100e3
:101be00010088800d8e2a900dae2a8001200370045
:101bf00084c0bf00684060000004e0000e003200b6
:101c0000dac2bf008040eb00014f78000004e00022
:101c10000200350010c0b300004f78001e4078006d
:101c2000c700dd00dac2bf000074a10001407000ef
:101c3000dae2b7008460a900eac2bf0001c8b300bd
:101c4000014060000004e000e9ff3200dae2a90090
:101c500087fa07000040eb009ee8b7009ec8bf006f
:101c60000004e0000d0032000045800011458000b6
:101c7000e00f5000e08f5800070032000045800060
:101c80001145800061005000e08058000045880048
:101c900011458800010037000000fe00b2fa07007d
:041ca000eeff37001c
:020000040000fa
:101ca400000a00008000000080000000000800001e
:101cb4009e000000800000009e0800000600000056
:081cc400800000000000000098
:020000040000fa
:081ccc000040da000000fe00f8
:00000001FF
