:020000040000fa
:04025c000e1f000071
:020000040000fa
:040210000e1f0000bd
:020000040000fa
:040274000e1f000059
:020000040000fa
:040334000e1f000098
:020000040000fa
:04035c000e1f000070
:020000040000fa
:040270000e1f00005d
:020000040000fa
:04022c000e1f0000a1
:020000040000fa
:04023c000e1f000091
:020000040000fa
:0402bc000e1f000011
:020000040000fa
:0402c0000e1f00000d
:020000040000fa
:0402c4000e1f000009
:020000040000fa
:0402c8000e1f000005
:020000040000fa
:040280000e1f00004d
:020000040000fa
:040284000e1f000049
:020000040000fa
:04039c000e1f000030
:020000040000fa
:040228000e1f0000a5
:020000040000fa
:040278000e1f000055
:020000040000fa
:04029c000e1f000031
:020000040000fa
:0402fc000e1f0000d1
:020000040000fa
:040300000e1f0000cc
:020000040000fa
:040260000e1f00006d
:020000040000fa
:040264000e1f000069
:020000040000fa
:04027c000e1f000051
:020000040000fa
:040288000e1f000045
:020000040000fa
:0402b0000e1f00001d
:020000040000fa
:0402b4000e1f000019
:020000040000fa
:0402b8000e1f000015
:020000040000fa
:040238000e1f000095
:020000040000fa
:0402e0000e1f0000ed
:020000040000fa
:0402e4000e1f0000e9
:020000040000fa
:0402e8000e1f0000e5
:020000040000fa
:0402f4000e1f0000d9
:020000040000fa
:0402f8000e1f0000d5
:020000040000fa
:040304000e1f0000c8
:020000040000fa
:040308000e1f0000c4
:020000040000fa
:04030c000e1f0000c0
:020000040000fa
:040310000e1f0000bc
:020000040000fa
:040314000e1f0000b8
:020000040000fa
:040318000e1f0000b4
:020000040000fa
:04031c000e1f0000b0
:020000040000fa
:040324000e1f0000a8
:020000040000fa
:040328000e1f0000a4
:020000040000fa
:040338000e1f000094
:020000040000fa
:04033c000e1f000090
:020000040000fa
:040340000e1f00008c
:020000040000fa
:040344000e1f000088
:020000040000fa
:04034c000e1f000080
:020000040000fa
:040350000e1f00007c
:020000040000fa
:040354000e1f000078
:020000040000fa
:040358000e1f000074
:020000040000fa
:040360000e1f00006c
:020000040000fa
:040364000e1f000068
:020000040000fa
:040368000e1f000064
:020000040000fa
:040348000e1f000084
:020000040000fa
:04026c000e1f000061
:020000040000fa
:0402f0000e1f0000dd
:020000040000fa
:04037c000e1f000050
:020000040000fa
:040218000e1f0000b5
:020000040000fa
:040230000e1f00009d
:020000040000fa
:040240000e1f00008d
:020000040000fa
:04028c000e1f000041
:020000040000fa
:040290000e1f00003d
:020000040000fa
:0402cc000e1f000001
:020000040000fa
:0402d0000e1f0000fd
:020000040000fa
:0402d4000e1f0000f9
:020000040000fa
:0402d8000e1f0000f5
:020000040000fa
:040398000e1f000034
:020000040000fa
:04020c000e1f0000c1
:020000040000fa
:0402dc000e1f0000f1
:020000040000fa
:040320000e1f0000ac
:020000040000fa
:040208000e1f0000c5
:020000040000fa
:04021c000e1f0000b1
:020000040000fa
:040220000e1f0000ad
:020000040000fa
:040224000e1f0000a9
:020000040000fa
:040268000e1f000065
:020000040000fa
:0402ec000e1f0000e1
:020000040000fa
:040378000e1f000054
:020000040000fa
:04024c000e1f000081
:020000040000fa
:040250000e1f00007d
:020000040000fa
:0402a8000e1f000025
:020000040000fa
:0402ac000e1f000021
:020000040000fa
:040390000e1f00003c
:020000040000fa
:040394000e1f000038
:020000040000fa
:040214000e1f0000b9
:020000040000fa
:040234000e1f000099
:020000040000fa
:040244000e1f000089
:020000040000fa
:040248000e1f000085
:020000040000fa
:040294000e1f000039
:020000040000fa
:040298000e1f000035
:020000040000fa
:04032c000e1f0000a0
:020000040000fa
:040254000e1f000079
:020000040000fa
:040258000e1f000075
:020000040000fa
:040330000e1f00009c
:020000040000fa
:0402a0000e1f00002d
:020000040000fa
:0402a4000e1f000029
:020000040000fa
:04036c000e1f000060
:020000040000fa
:040370000e1f00005c
:020000040000fa
:040374000e1f000058
:020000040000fa
:040384000e1f000048
:020000040000fa
:040388000e1f000044
:020000040000fa
:04038c000e1f000040
:020000040000fa
:040380000e1f00004c
:020000040000fa
:080000001011040000000000d3
:020000040000fa
:102220000fa820000eff27000e018800000000000c
:10223000000020000000e000020032000001200049
:1022400020028800140007007d0007000000e00065
:1022500003003a00a0ef2100010020000200370037
:102260000000200001002000810f700001003200fa
:1022700014000700000020000000e000020032000f
:102280000000020000000000e41d02000000000049
:102290000040da000000fe004440a900a006200033
:1022a0000000e000030032000020200090018800c0
:1022b0004440a800000006008a1f78008b1f7800a9
:1022c00000000600a1028800800478000000eb00f6
:1022d0001f003700e284440054a0b4009905ba00fe
:1022e000e284440054a0b4009906ba00e284440099
:1022f00054a0b4000006eb00476fde00fd07b200fb
:10230000ae018800636ce10003003a00eaff0700b9
:102310000000eb000e003700606ce10008003a009e
:10232000004deb000a05e800020039003420ec0003
:102330000af0a0008b05e900f9ff3e000400370019
:102340006168e100010032000086eb000b0007002d
:1023500019c7ba001905ba000e04e00003003a00dc
:102360000a00e000dbff3a0000000600fe07b200b2
:10237000ae0288008a047800f5ff37000cd0a30075
:10238000e20f4d001c00390089027800354dba007b
:102390000a05e800020039003420ec000af0a00031
:1023a0008b05e9000f003200254dba000a05e80050
:1023b000020039003420ec000af0a0008b05e9008f
:1023c000080032000c00e0000600320015cdba0013
:1023d0000a05e800020039003420ec000af0a000f1
:1023e0008b05e9008984e80054a0b4000b00e000ec
:1023f000e2ff3a00000006009902ba00055d78008d
:102400008b05e900f7ff3200c82ade00055d780081
:102410008b05e900f3ff32000c00e000f1ff320011
:1024200019ddba00eeff3700aa1c0400000000000e
:10243000ca12040000000000101b0400000000008d
:042440000000050093
:020000040000fa
:1020000010110400000000000e1f0400000000007a
:102010000e1f0400000000000e1f0400000000005e
:102020000e1f0400000000000e1f0400000000004e
:102030000e1f0400000000000e1f0400000000003e
:102040000e1f0400000000000e1f0400000000002e
:102050000e1f0400000000000e1f0400000000001e
:102060000e1f0400000000000e1f0400000000000e
:102070000e1f0400000000000e1f040000000000fe
:102080000e1f0400000000000e1f040000000000ee
:102090000e1f0400000000000e1f040000000000de
:1020a0000e1f0400000000000e1f040000000000ce
:1020b0000e1f0400000000000e1f040000000000be
:1020c0000e1f0400000000000e1f040000000000ae
:1020d0000e1f0400000000000e1f0400000000009e
:1020e0000e1f0400000000000e1f0400000000008e
:1020f0000e1f0400000000000e1f0400000000007e
:102100000e1f0400000000000e1f0400000000006d
:102110000e1f0400000000000e1f0400000000005d
:102120000e1f0400000000000e1f0400000000004d
:102130000e1f0400000000000e1f0400000000003d
:102140000e1f0400000000000e1f0400000000002d
:102150000e1f0400000000000e1f0400000000001d
:102160000e1f0400000000000e1f0400000000000d
:102170000e1f0400000000000e1f040000000000fd
:102180000e1f0400000000000e1f040000000000ed
:102190000e1f0400000000000e1f040000000000dd
:1021a0000e1f0400000000000e1f040000000000cd
:1021b0000e1f0400000000000e1f040000000000bd
:1021c0000e1f0400000000000e1f040000000000ad
:1021d0000e1f040000000000ce1e040000000000de
:1021e0000e1f0400000000000e1f0400000000008d
:1021f0000e1f0400000000000e1f0400000000007d
:102200000e1f0400000000000e1f0400000000006c
:102210000e1f0400000000000e1f0400000000005c
:020000040000fa
:1000080004100000081000000c1000001010000080
:10001800141000000c1100000c1100000c1100005d
:10002800181000001c100000201000002410000010
:100038000c110000281000002c10000030100000e7
:1000480034100000381000003c1000004010000080
:1000580044100000481000000c1100000c110000b2
:100068004c10000050100000541000005810000000
:100078005c1000000c11000060100000641000000b
:100088000c110000681000006c10000070100000d7
:1000980074100000781000007c1000008010000030
:1000a80084100000881000000c1100000c110000e2
:1000b8000c1100008c10000090100000941000003b
:1000c800981000009c100000a0100000a410000070
:1000d800a8100000ac1000000c1100000c1100006a
:1000e8000c110000b0100000b41000000c1100004a
:1000f8000c110000b8100000bc1000000c1100002a
:100108000c1100000c1100000c1100000c11000073
:100118000c1100000c110000c01000000c110000b0
:100128000c110000c4100000c8100000cc10000022
:100138000c1100000c1100000c1100000c11000043
:10014800d01000000c1100000c1100000c11000070
:100158000c110000d41000000c1100000c1100005c
:100168000c110000d8100000dc100000e0100000a6
:10017800e4100000e8100000ec100000f01000008f
:10018800f4100000f8100000fc100000001100003e
:1001980004110000081100000c1100000c110000ef
:1001a8000c1100000c1100000c1100000c110000d3
:1001b8000c1100000c1100000c1100000c110000c3
:1001c8000c1100000c1100000c1100000c110000b3
:1001d8000c1100000c1100000c1100000c110000a3
:1001e8000c1100000c1100000c1100000c11000093
:0801f8000c1100000c110000c5
:020000040000fa
:102444001201000000020000000000000040000033
:1024540066660000030000000000000001020000a6
:102464000001000009020000120000000101000048
:1024740000a0000032090000040000000000000079
:10248400ff000000ff00000034920000040300007d
:10249400090400001a0300004f0000006c00000053
:1024a400690000006e0000002000000043000000ee
:1024b4006f0000006c0000006c000000650000006c
:1024c40067000000650000002003000050000000c9
:1024d4004900000043000000320000003400000006
:1024e400460000004a0000003100000032000000f5
:1024f40038000000470000004200000032000000e5
:102504003000000036000000489200004c920000a9
:0425140066920000cb
:020000040000fa
:102518000600fa0040479800a04a200010079800db
:10252800ce409000014f7800130037001e80fb005a
:10253800000040009e009000008040008000eb00fa
:10254800010878001e80fb0080004000808a20007f
:10255800008040008000eb00010878001e80fb002e
:1025680080004000808c2000008040008000eb004c
:10257800010878001e4fe8001e407800ef4f500019
:10258800eaff36000080fa00000006000000fa00aa
:10259800c0892000104078000080fb00b02488002b
:1025a800b02480000000e00003003a0010c0b3002f
:1025b80010e8b7000200370020c0b30010e8b700e9
:1025c8000000eb00404588000080fa00000006008b
:1025d8000000fa009ec0a9009424a8009624ef00e9
:1025e800f00f2000702488009424a9000040eb001c
:1025f800c7ff0700d00020005025880000a0200059
:1026080001c4b30001487800a08120001050880060
:1026180010a0200081c8b30001487800a0852000e0
:102628003050880050a0200081c0b30001487800d5
:10263800a624ef00a824ef0000a020004800de0038
:10264800c02488008644a80086e4a8008804a8005e
:1026580094a4a9000d68ef001068ef0010c0b30043
:102668000ee8b700a089200080c0eb000148780080
:10267800b089200080c0eb00014878000000eb0022
:10268800204588000000eb0030458800000000006d
:10269800a124800000042000008060000000e00009
:1026a800fbff3a00f00f200060248800f00f2000a4
:1026b800802488008ec0a9009ec0a8000080fa006f
:1026c800000006000400fa00502480006200600048
:1026d8000000e00005003200f00f200070248800a0
:1026e8002000200050248800ba00370050248000c1
:1026f800640060000000e000030032004000200099
:1027080050248800b3003700502480007000600017
:102718000000e0000300320000012000502488007f
:10272800ac003700512480000002200000806000c7
:102738000000e0000300320000022000502488005e
:10274800a4003700512480000008200000806000a9
:102758000000e00003003200000820005024880038
:102768009c00370050248000610060000000e000f9
:10277800270032000d68ef000800370080002000b5
:102788005024880000000000000000000000000045
:10279800000000000000000000000000502480003d
:1027a800680060000000e000f4ff3a000040eb0021
:1027b80057ff070000a0200001c4b30001487800bb
:1027c800a08120001050880010a0200081c8b3000c
:1027d80001487800a08520003050880050a02000d3
:1027e80081c0b300014878009624ef00f00f200064
:1027f80050248800d00020005025880010c0b30065
:1028080010e8b70010c0b3000ee8b7007100370039
:1028180050248000680060000000e0006d00320075
:10282800902480004300de00c200dd0000a02000ec
:10283800008f40001e0078001040900001e8b700ab
:102848001e0078001040780000e8b7001e007800ed
:10285800100090001040880090248000004078000c
:102868000fe8b70080002000502488000c68ef00b3
:1028780001c8bf008080fb00c0032000008060000a
:1028880041022000810f500008003200410320005f
:10289800810f500003003200e40f5000170032008f
:1028a8003d0037004e0007003b0037000fc8bf004f
:1028b8000080fb004400de00204798002e40900076
:1028c8000080fb0080004000808a200000804000db
:1028d800100078000000e0002e0032002e4090002a
:1028e8000080fb0080004000808a200000804000bb
:1028f8001000780000000100270037000fc8bf0053
:102908000080fb004400de00204798002e40900025
:102918000080fb0080004000808c20000080400088
:10292800100078000000e000070032002e40900000
:102938000080fb0080004000808c20000080400068
:1029480010007800000001002e4090000004e00014
:1029580011003a00204580000000e0000e003a0017
:1029680000a0200001c4b3000148780010a0200096
:1029780081c8b3000148780040a020008040eb00e7
:102988000148780050a0200081ccb30001487800ad
:1029980001003700000000000cc8bf000080fb00e9
:1029a80061006000004078000004e0000900320087
:1029b80000a0200001c4b3000148780050a0200006
:1029c80041c8b3000148780010a0200041c8b300f6
:1029d800014878008ec0a9000080fa0000000600b7
:1029e8000200fa0011408000010f78001e007800f4
:1029f8009040780040802000014878001e0fe800d1
:102a08001e00780090407800408020001140980017
:102a18001e0fe8001e0078009040780040802000db
:102a2800214098001e0fe8001e00780090407800b2
:102a380040802000314098001e0fe8001e007800fa
:102a48009040780040802000414098001e0fe80028
:102a58001e00780090407800408020005140980087
:102a68001e0fe8001e00780090407800408020008b
:102a7800614098001e0fe8001e0078009040780022
:102a880040802000714098001e0fe80000a0200040
:102a980001c4b3000148780050a0200081c0b300f1
:102aa8000148780040802000104078000004e000d1
:102ab8000600350040802000300090000000e00053
:102ac8000200320080ccb3000100370080c8b30098
:102ad80011a020008048780094a4a900a0892000b3
:102ae80080c0eb0001487800b089200080c0eb006e
:102af800014878000000eb00204588000000eb004a
:102b08003045880040802000104078008080fb001d
:102b1800000620000080600001022000810f5000a4
:102b28001100320001042000810f5000040032001f
:102b38000000e00016003a001a00070017003700ee
:102b4800c04080000000e00003003200c040800068
:102b580000000100110037000cc8bf000004a000ed
:102b68000ce8b7000d003700b04080000000e0001e
:102b780003003200b0408000000001000700370069
:102b88000cc8bf000004a0000ce8b7000300370021
:102b98000cc8bf000004a0000ce8b7000080fa00d1
:102ba800000006000600fa00408020001040900057
:102bb8000080fb00e60f5000bc013200e60f500019
:102bc8000c003c00e10f5000c1003200e10f500042
:102bd80003003c000000e0001200320087023700ca
:102be800e30f5000ba003200e50f50008d013200ab
:102bf80082023700e90f500022023200e90f50002c
:102c080003003c00e80f5000130232007b0237003b
:102c1800ea0f50003d023200eb0f5000560232001e
:102c28007602370040802000104078000080fb00ca
:102c38007f006000e10f500013003200e20f5000e7
:102c4800320032000000e0009c003a003050800062
:102c5800e1802000914078000148780030508000e1
:102c68000000e8008040eb000148780040a0200008
:102c780021c0b3000148780050a0200081ccb300e7
:102c8800014878009100370010c8bf000080fb00a1
:102c9800e20f500003003200e30f5000050032003d
:102ca800190037000cc8bf000004a0000ce8b700ea
:102cb8001500370040802000404090000004e000ec
:102cc8000e003a00305080008040eb000148780048
:102cd800305080000000e8008040eb000148780098
:102ce80040a0200021c0b3000148780050a0200077
:102cf80081ccb30001487800030037000cc8bf003e
:102d08000004a0000ce8b7007000370010c8bf002e
:102d18000080fb00e20f500003003200e30f500078
:102d280029003200610037004080200040409000b8
:102d38000080fb006f0060000000e0001e003a0009
:102d48003150800040802000404090000004e000a6
:102d580007003d0050a02000104078000080fb00d4
:102d6800640060004280de00004078000600370002
:102d780010a02000104078000080fb006400600074
:102d88004280de00004078008048780030508000a3
:102d98000000e8008040eb000148780040a02000d7
:102da80021c0b3000148780050a0200081ccb300b6
:102db80001487800030037000cc8bf000004a000d9
:102dc8000ce8b7003c003700a04a2000000f78004c
:102dd80040802000404090006f40600020479800ed
:102de8002e4090000080fb0000004000800078002a
:102df80040802000404090000000fb004f00de00b3
:102e080001007000c200dd0000a02000008040002a
:102e1800200798002e4090000080fb000000400032
:102e28001e00400090007800408020004040900044
:102e38000004e00002003d004000200001003700cf
:102e480080002000008060000000e00013003200d5
:102e580030508000ae009000914090008180fb00cf
:102e6800e4806000c288de00814078000148780074
:102e7800305080000000e8008040eb0001487800f6
:102e880040a0200021c0b3000148780050a02000d5
:102e980081ccb30001487800030037000cc8bf009c
:102ea8000004a0000ce8b700030037000cc8bf00fe
:102eb8000004a0000ce8b700040037000cc8bf00ed
:102ec8000004a0000ce8b700d1013700d00137009a
:102ed80040802000104078000080fb007f006000e8
:102ee8000000e00003003200e20f50001e00320034
:102ef800c700370040802000204090000080fb0081
:102f0800e10f500014003a0040802000104090006b
:102f1800e14f500006003a00e1802000914078001f
:102f2800e0cfb30000c060000ee8b7000300370030
:102f38000ec8bf000004a0000ee8b70040a02000a3
:102f48008040eb000148780050a0200081ccb300fd
:102f580001487800030037000cc8bf000004a00037
:102f68000ce8b700ae00370010c8bf000080fb00b7
:102f7800e20f500003003200e30f5000120032004d
:102f88009f00370040802000404090000080fb00f8
:102f98006f0060000000e00007003a0040a0200039
:102fa8008040eb000148780050a0200081ccb3009d
:102fb80001487800030037000cc8bf000004a000d7
:102fc8000ce8b70091003700a04a2000000f7800f5
:102fd80040802000404090006f40600020479800eb
:102fe8002e4090000004e000790032002e4090004e
:102ff8000080fb0000004000800078004080200036
:10300800404090000000fb004f00de00010070000f
:10301800c200dd0000a020000080400020079800ca
:1030280040802000404090000004e00030003d0057
:103038002e4090000080fb00000040001e00400071
:1030480010007800640060000000e00024003200f6
:103058004080200010409000e14f500019003a00d5
:103068002e4090000080fb00000040009e004000c1
:103078002e4090000080fb00000040001e00400031
:1030880010017800d00f200000006100800878004f
:103098002e00900090409000b0cfb30080c0600038
:1030a8002e009000114098002e00900010409000d3
:1030b800804078000164a0002e0090001140980024
:1030c800430037002e0090001040900080407800a8
:1030d8000124a0002e009000114098003c00370009
:1030e8000cc8bf000004a0000ce8b7003800370087
:1030f8002e4090000080fb00000040001e004000b1
:1031080010007800680060000000e0002d00320028
:103118004080200010409000e14f500019003a0014
:103128002e4090000080fb00000040009e00400000
:103138002e4090000080fb00000040001e00400070
:1031480010017800d00f200000006100800878008e
:103158002e00900090409000b0cfb30080c0600077
:103168002e009000114098002e0090009040900092
:10317800f0cbb30080c060002e0090001140980092
:10318800060037002e009000104090008040780024
:103198000124a0002e0090001140980040802000db
:1031a80010409000e14f500002003a0080c8b30080
:1031b8000100370040c8b300ae009000904098006e
:1031c800030037000cc8bf000004a0000ce8b700db
:1031d8000cc8bf000080fb00610060000000e00038
:1031e80006003a0040a020008040eb00014878002b
:1031f80050a0200081ccb3000148780003003700bc
:103208000cc8bf000004a0000ce8b7000400370099
:103218000cc8bf000004a0000ce8b700fc00370091
:10322800fb00370040802000204090000004e000b0
:1032380004003d000cc8bf000004a0000ce8b70063
:10324800f30037004080200090407800a0892000db
:10325800014878004080200090409000b08920000c
:10326800014878004080200010009000e044880069
:103278004080200020009000f0448800408020001a
:103288003000900000458800a02c210040458800af
:1032980040a020008040eb000148780050a02000aa
:1032a80081ccb30001487800d90037004080200065
:1032b80090407800a08920000148780040802000d4
:1032c80090409000b089200001487800408020009c
:1032d80010009000e044880040802000200090000a
:1032e800f0448800408020003000900000458800ad
:1032f80040802000304090000080fb00e20f50002a
:103308000b003200e30f500024003200e10f5000a0
:1033180037003a0020222900104588001045800017
:10332800104078000080fb002045880039003700f5
:1033380040802000204090000004e00013003a0084
:1033480040802000204090000080fb00800040006a
:103358006024290000804000100078001045880093
:10336800104580000080e80090407800408a2000e6
:1033780001487800104580006300400090407800c4
:10338800508a200001487800220037000cc8bf008e
:103398000004a0000ce8b7001e00370040802000a1
:1033a80020409000e34f50000d003e004080200078
:1033b800204090000080fb00800040006028290029
:1033c80000804000100078001045880010458000fb
:1033d800104078000080fb00204588000d00370071
:1033e8000cc8bf000004a0000ce8b70009003700b3
:1033f800a04080000000e00003003200a0408000f0
:1034080000000100030037000cc8bf000004a00042
:103418000ce8b7000cc8bf000080fb00610060002a
:103428000000e00079003a0000b121004045880022
:1034380040802000b000900020458000808f500020
:1034480003003100408020003000900020458800b3
:10345800710007006e00370030508000d1802000d6
:10346800914078000148780040a0200011c0b300c6
:103478000148780050a0200081ccb30001487800b2
:10348800630037004080200020409000e14f50004a
:103498001a003e0010c0b3001dfc07004080200049
:1034a800204090000de8b7000dc8bf000080fb0069
:1034b8000000e00003003a0020c0b30010e8b700a5
:1034c8000700370030c0b30010e8b7009040800014
:1034d8000000e0000200320090408000000001007f
:1034e80040a020008040eb000148780050a0200058
:1034f80081ccb30001487800450037000cc8bf00f4
:103508000004a0000ce8b7004100370010c8bf0055
:103518000080fb00e30f500013003a0040802000b9
:10352800404090000004e0000a003a00305080005b
:103538008040eb000148780040a0200011c0b30093
:103548000148780050a0200081ccb30001487800e1
:10355800030037000cc8bf000004a0000ce8b70047
:10356800000000002a0037000cc8bf000004a000bb
:103578000ce8b7002600370010c8bf000080fb0029
:10358800e30f500019003a004080200040409000ae
:103598000004e00010003a00408020002040900025
:1035a8000080fb000000e00007003a0040a0200077
:1035b8008040eb000148780050a0200081ccb30087
:1035c80001487800070037000cc8bf000004a000bd
:1035d8000ce8b700030037000cc8bf000004a000c7
:1035e8000ce8b70000000000090037000cc8bf0055
:1035f8000004a0000ce8b700050037000cc8bf00a5
:103608000004a0000ce8b70001003700000000002b
:103618000080fa00000006000200fa002145800040
:10362800f0032000808f500005003e0020458000f8
:10363800004f78000000eb002045880005003700a7
:1036480000c4b300004f7800204580000004b1009a
:10365800204588000040eb00104798000c00370018
:10366800315080001e4090000080fb0080804000a8
:103678001045800010417800824878000000e8007a
:10368800104588001e4090000040e8001047980050
:103698001e4090009e4f5000f1ff390040a02000ce
:1036a8001e48780050a020001040780000c0ea00b2
:1036b80002c4b3008240600080c8b30000c070003c
:1036c8008040780050a02000014878002045800004
:1036d8000000e0000f003a00304580000000e000e4
:1036e800020032003045800000000100a08920005f
:1036f80080c0eb0001487800b089200080c0eb0052
:10370800014878000000eb00304588000000eb001d
:10371800404588000080fa00000006000200fa0018
:103728000040eb00004f780009003700104580008a
:10373800125080009e80fb0081004100914078007b
:10374800014878000000e800104588001e4fe80096
:1037580000a02000104078009e4f5000f3ff3e006c
:103768002145800000a02000104078000080fb0068
:103778000080500020458800204580000000e000bf
:103788000e00320000a0200001c4b30001487800f8
:1037980010a020001040780000c0ea0002c4b30066
:1037a8008240600080c8b30000c07000804078008c
:1037b80010a02000014878000f0037003045800035
:1037c8000000e000020032003045800000000100e7
:1037d800a089200080c0eb0001487800b089200053
:1037e80080c0eb00014878000000eb0030458800fd
:1037f8000000eb00404688000080fa000000060048
:103808000200fa00000f78001e0078004800de0071
:103818001e0f68001e0078004400de001e0f6800be
:103828001e0078004200de001e0f68001e007800af
:103838000000d1001e0f68009e00780061806000c3
:103848000080fa00000006000800fa00889fbe0009
:1038580000047800310798003e00900000e0a000c6
:10386800100798009e0490001e009000e4ff0700d7
:103878004f00dd000900700010079800eaa2a900b7
:103888003e4090000080fb004013880000000000cc
:1038980000138000610060000000e000fcff3200bf
:1038a80041138000010f78002e4090000080fb003b
:1038b80040138800000000000013800061006000d1
:1038c8000000e000fcff320041138000010f780087
:1038d800eaa2a800000000000000000000000000ac
:1038e80000000000eaa2a9006822ef000000000022
:1038f80000138000610060000000e000fcff32005f
:103908004013800000407800504798006822ef007c
:103918000000000000138000610060000000e0006b
:10392800fcff3200401380000040780040479800b8
:10393800eaa2a800ae009000010c78000800780008
:103948004f04be000080fa00000006000200fa00e2
:1039580040802000104090000080fb00e30f5000e2
:1039680052003200e30f500007003c00e10f500006
:1039780023003200e10f500036003c000000e00058
:103988000800320089003700e50f5000640032005b
:10399800e50f500051003500e60f5000710032006d
:1039a80082003700d11680000008200000806000e7
:1039b80000f0a7000000ea000000e9004f00de0068
:1039c800004078000080fb00610060004700dd00d7
:1039d800d2168000f1f72f0081006100010070000d
:1039e800d016880040a020008040eb0001487800f5
:1039f80050a0200081ccb300014878006e00370049
:103a0800501780006100600000f0a7000000ea0085
:103a18000000e9004f00de00004078000080fb0055
:103a28006100600052178000e1ff2f0081006100f3
:103a3800010070005017880040a020008040eb0073
:103a48000148780050a0200081ccb30001487800dc
:103a580059003700501780006200600000f0a7008e
:103a68000000ea000000e9004f00de000040780096
:103a78000080fb00610060000000400052178000d9
:103a8800d1ff2f00810061000100700050178800ed
:103a980040a020008040eb000148780050a02000a2
:103aa80081ccb300014878004300370030508000d3
:103ab80091168000cf08de00814078000148780028
:103ac80040a0200011c0b3000148780050a0200099
:103ad80081ccb300014878003700370030508000af
:103ae80092168000010021008100610001f0a7000a
:103af8008100ea008100ea00cf08de0081407800fa
:103b08000148780040a0200011c0b30001487800a7
:103b180050a0200081ccb30001487800260037006f
:103b280030508000521680000100210081006100a1
:103b380001f0a7008100ea008100ea00cf08de005a
:103b4800814078000148780040a0200011c0b300ef
:103b58000148780050a0200081ccb30001487800cb
:103b68001500370040802000900090000e0078007b
:103b780035ff0700305080009e40780001487800eb
:103b8800305080000000e8009e4090000148780016
:103b980040a0200021c0b3000148780050a02000b8
:103ba80081ccb30001487800030037000cc8bf007f
:103bb8000004a0000ce8b7000080fa00000006002e
:103bc8000400fa0036000700e8a2a900eaa2a8004b
:103bd800e882a900ea82a900d8a2a900daa2a9006d
:103be800d882a800006c2000000f78000068200030
:103bf80010079800113a8000f00b20000081600047
:103c0800600420007105200023742000804978009a
:103c180081497800824978001e009000c002b000f7
:103c280091c1b300014878009e007800748040007c
:103c3800a1c0b300014878009e0078006a80400067
:103c4800b1c0b30001487800103a80000001780044
:103c58000260a00060042000710520002374200089
:103c6800804978008149780082497800a0032000c3
:103c7800101388006422ef00000028000013880059
:103c8800a0ca2100c040880051fa070000000000c7
:103c980010c8bf00e34f5000fdff3a00ffff370098
:103ca8000000fa0000102000203a8800d8a2a800de
:103cb800d882a800e882a800e8a2a800c9e2a80063
:103cc800e862a800d902a800d962a800d922a800f1
:103cd800d942a800d802a800d822a800d842a80033
:103ce800d862a800c8a2a800c882a800c862a80014
:103cf800c842a800c822a800c802a800f0032000f3
:103d080010278800e424ef00e624ef00ea24ef00ff
:103d1800ec24ef00000e2000001988002223ef0099
:103d280000c4200020198800500020004019880095
:103d380021e3a800d8e2a900dae2a900e802a90074
:103d4800ea02a900e822a900ea22a900d1e2a80013
:103d5800d182a800c982a8000080fa0000000600ed
:103d68000200fa00000f78009e00780041198800d0
:103d78002023a800000000000019800061006000f6
:103d88000000e000fcff3200001880000080fa000c
:043d98000000060021
:020000040000fa
:103d9c003600f800809fbe00829fbe00849fbe004c
:103dac00869fbe003200f8003400f800100020009e
:103dbc00a001880000202000900188000000fa007b
:103dcc003ffa07000080fa003400f9003200f900d5
:103ddc004f03be004f02be004f01be004f00be009d
:083dec003600f900004006005a
:020000040000fa
:103df4001a080000ce00000080000000000a000045
:103e04008000000080000000000800001a0000008c
:083e1400800000000000000026
:020000040000fa
:083e1c000040da000000fe0086
:00000001FF
